:020000040800F2
:1000000000000220512B00084D1400084F14000876
:100010005114000853140008551400080000000093
:10002000000000000000000000000000571400085D
:1000300059140008000000005B1400085D1400085B
:10004000A12B0008A12B0008A12B0008A12B000860
:10005000A12B0008A12B0008A12B0008A12B000850
:10006000A12B0008A12B0008A12B0008A12B000840
:10007000A12B0008A12B0008A12B0008A12B000830
:10008000A12B0008A12B0008A12B0008A12B000820
:10009000A12B0008A12B0008A12B0008A12B000810
:1000A000A12B0008A12B0008A12B0008A12B000800
:1000B000A12B0008A12B0008A12B0008A12B0008F0
:1000C000A12B0008A12B0008A12B0008A12B0008E0
:1000D000A12B0008A12B0008A12B0008A12B0008D0
:1000E000A12B0008A12B0008A12B0008A12B0008C0
:1000F000A12B0008A12B0008A12B0008A12B0008B0
:10010000A12B0008A12B0008A12B0008A12B00089F
:10011000A12B0008A12B0008A12B0008A12B00088F
:10012000A12B0008A12B0008A12B0008A12B00087F
:10013000A12B00080000000000000000A12B000817
:10014000A12B0008A12B0008A12B0008A12B00085F
:10015000A12B0008A12B0008A12B0008A12B00084F
:10016000A12B0008A12B0008A12B0008A12B00083F
:10017000A12B0008A12B0008A12B00080000000003
:1001800000000000A12B000800000000000000009B
:10019000A12B00080000000000000000A12B0008B7
:1001A000000000000000000000000000A12B00087B
:1001B000A12B0008A12B0008A12B0008A12B0008EF
:0401C000A12B000867
:1001C40010B5054C237833B9044B13B10448AFF38D
:1001D40000800123237010BD0C00002000000000EB
:1001E400FC2B000808B5034B1BB103490348AFF3CC
:1001F400008008BD0000000010000020FC2B000857
:1002040081F0004102E000BF83F0004330B54FEAC3
:1002140041044FEA430594EA050F08BF90EA020F30
:100224001FBF54EA000C55EA020C7FEA645C7FEAC3
:10023400655C00F0E2804FEA5454D4EB5555B8BFE6
:100244006D420CDD2C4480EA020281EA030382EA57
:10025400000083EA010180EA020281EA0303362DE9
:1002640088BF30BD11F0004F4FEA01314FF4801CBC
:100274004CEA113102D0404261EB410113F0004FCE
:100284004FEA03334CEA133302D0524263EB430385
:1002940094EA050F00F0A780A4F10104D5F1200E23
:1002A4000DDB02FA0EFC22FA05F2801841F100017E
:1002B40003FA0EF2801843FA05F359410EE0A5F152
:1002C40020050EF1200E012A03FA0EFC28BF4CF083
:1002D400020C43FA05F3C01851EBE37101F0004539
:1002E40007D54FF0000EDCF1000C7EEB00006EEB46
:1002F4000101B1F5801F1BD3B1F5001F0CD34908D0
:100304005FEA30004FEA3C0C04F101044FEA445226
:1003140012F5800F80F09A80BCF1004F08BF5FEAAD
:10032400500C50F1000041EB045141EA050130BD8D
:100334005FEA4C0C404141EB010111F4801FA4F130
:100344000104E9D191F0000F04BF01460020B1FA85
:1003540081F308BF2033A3F10B03B3F120020CDABD
:100364000C3208DD02F1140CC2F10C0201FA0CF09B
:1003740021FA02F10CE002F11402D8BFC2F1200C00
:1003840001FA02F120FA0CFCDCBF41EA0C019040B6
:10039400E41AA2BF01EB0451294330BD6FEA0404FF
:1003A4001F3C1CDA0C340EDC04F11404C4F12002EA
:1003B40020FA04F001FA02F340EA030021FA04F3FC
:1003C40045EA030130BDC4F10C04C4F1200220FA53
:1003D40002F001FA04F340EA0300294630BD21FA91
:1003E40004F0294630BD94F0000F83F4801306BF57
:1003F40081F480110134013D4EE77FEA645C18BF4B
:100404007FEA655C29D094EA050F08BF90EA020FE1
:1004140005D054EA000C04BF1946104630BD91EAD9
:10042400030F1EBF0021002030BD5FEA545C05D1DC
:100434004000494128BF41F0004130BD14F580041B
:100444003CBF01F5801130BD01F0004545F0FE418F
:1004540041F470014FF0000030BD7FEA645C1ABFC4
:10046400194610467FEA655C1CBF0B46024650EAFB
:10047400013406BF52EA033591EA030F41F4002127
:1004840030BD00BF90F0000F04BF0021704730B5AD
:100494004FF4806404F132044FF000054FF0000182
:1004A40050E700BF90F0000F04BF0021704730B543
:1004B4004FF4806404F1320410F0004548BF404218
:1004C4004FF000013EE700BF42004FEAE2014FEA6D
:1004D40031014FEA02701FBF12F07F4393F07F4F48
:1004E40081F06051704732F07F4208BF704793F04B
:1004F4007F4F04BF41F40021704730B54FF460745E
:1005040001F0004521F000411CE700BF50EA010260
:1005140008BF704730B54FF000050AE050EA010209
:1005240008BF704730B511F0004502D5404261EB79
:1005340041014FF4806404F132045FEA915C3FF4BA
:10054400D8AE4FF003025FEADC0C18BF03325FEA57
:10055400DC0C18BF033202EBDC02C2F1200300FA08
:1005640003FC20FA02F001FA03FE40EA0E0021FA2D
:1005740002F11444BDE600BF70B54FF0FF0C4CF41B
:10058400E06C1CEA11541DBF1CEA135594EA0C0FCD
:1005940095EA0C0F00F0DEF82C4481EA030621EA08
:1005A4004C5123EA4C5350EA013518BF52EA033543
:1005B40041F4801143F4801338D0A0FB02CE4FF0F5
:1005C4000005E1FB02E506F00042E0FB03E54FF025
:1005D4000006E1FB03569CF0000F18BF4EF0010E1D
:1005E400A4F1FF04B6F5007F64F5407404D25FEA19
:1005F4004E0E6D4146EB060642EAC62141EA5551CC
:100604004FEAC52040EA5E504FEACE2EB4F1FD0C0D
:1006140088BFBCF5E06F1ED8BEF1004F08BF5FEA8B
:10062400500E50F1000041EB045170BD06F000463D
:1006340046EA010140EA020081EA0301B4EB5C04EA
:10064400C2BFD4EB0C0541EA045170BD41F48011E2
:100654004FF0000E013C00F3AB8014F1360FDEBF07
:10066400002001F0004170BDC4F10004203C35DAE3
:100674000C341BDC04F11404C4F1200500FA05F366
:1006840020FA04F001FA05F240EA020001F0004207
:1006940021F0004110EBD37021FA04F642EB06017D
:1006A4005EEA430E08BF20EAD37070BDC4F10C04A7
:1006B400C4F1200500FA04F320FA05F001FA04F26B
:1006C40040EA020001F0004110EBD37041F1000157
:1006D4005EEA430E08BF20EAD37070BDC4F1200562
:1006E40000FA05F24EEA020E20FA04F301FA05F2CA
:1006F40043EA020321FA04F001F0004121FA04F272
:1007040020EA020000EBD3705EEA430E08BF20EA41
:10071400D37070BD94F0000F0FD101F0004640007B
:1007240041EB010111F4801F08BF013CF7D041EAFD
:10073400060195F0000F18BF704703F00046520001
:1007440043EB030313F4801F08BF013DF7D043EAD2
:100754000603704794EA0C0F0CEA135518BF95EA88
:100764000C0F0CD050EA410618BF52EA4306D1D10F
:1007740081EA030101F000414FF0000070BD50EA2E
:10078400410606BF1046194652EA430619D094EAB8
:100794000C0F02D150EA013613D195EA0C0F05D1A2
:1007A40052EA03361CBF104619460AD181EA0301F6
:1007B40001F0004141F0FE4141F470014FF00000AE
:1007C40070BD41F0FE4141F4780170BD70B54FF049
:1007D400FF0C4CF4E06C1CEA11541DBF1CEA1355C9
:1007E40094EA0C0F95EA0C0F00F0A7F8A4EB0504AB
:1007F40081EA030E52EA03354FEA013100F08880A2
:100804004FEA03334FF0805545EA131343EA12636A
:100814004FEA022245EA111545EA10654FEA00261F
:100824000EF000419D4208BF964244F1FD0404F5D8
:10083400407402D25B084FEA3202B61A65EB030534
:100844005B084FEA32024FF480104FF4002CB6EBF1
:10085400020E75EB030E22BFB61A754640EA0C0071
:100864005B084FEA3202B6EB020E75EB030E22BFB1
:10087400B61A754640EA5C005B084FEA3202B6EBF2
:10088400020E75EB030E22BFB61A754640EA9C00B1
:100894005B084FEA3202B6EB020E75EB030E22BF81
:1008A400B61A754640EADC0055EA060E18D04FEA3F
:1008B400051545EA16754FEA06164FEAC30343EADF
:1008C40052734FEAC2025FEA1C1CC0D111F4801FAC
:1008D4000BD141EA00014FF000004FF0004CB6E7A5
:1008E40011F4801F04BF01430020B4F1FD0C88BF44
:1008F400BCF5E06F3FF6AFAEB5EB030C04BFB6EB4F
:10090400020C5FEA500C50F1000041EB045170BD41
:100914000EF0004E4EEA113114EB5C04C2BFD4EB6E
:100924000C0541EA045170BD41F480114FF0000EF2
:10093400013C90E645EA060E8DE60CEA135594EA6E
:100944000C0F08BF95EA0C0F3FF43BAF94EA0C0F71
:100954000AD150EA01347FF434AF95EA0C0F7FF4E6
:1009640025AF104619462CE795EA0C0F06D152EA3A
:1009740003353FF4FDAE1046194622E750EA41061E
:1009840018BF52EA43067FF4C5AE50EA41047FF42F
:100994000DAF52EA43057FF4EBAE12E74FEA410292
:1009A400B2F1E04324BFB3F5001CDCF1FE5C0DD9C9
:1009B40001F0004C4FEAC0024CEA5070B2F1004F13
:1009C40040EB830008BF20F00100704711F0804F16
:1009D40021D113F13872BCBF01F00040704741F4DB
:1009E40080114FEA5252C2F11802C2F1200C10FADF
:1009F4000CF320FA02F018BF40F001004FEAC123C3
:100A04004FEAD32303FA0CFC40EA0C0023FA02F366
:100A14004FEA4303CCE77FEA625307D150EA01333C
:100A24001EBF4FF0FE4040F44000704701F000400C
:100A340040F0FE4040F40000704700BF53B94AB98B
:100A4400002908BF00281CBF4FF0FF314FF0FF30D2
:100A540000F072B9ADF1080C6DE904CE00F006F8AF
:100A6400DDF804E0DDE9022304B070472DE9F04726
:100A7400089E04468846002B4BD18A42154667D906
:100A8400B2FA82F24AB1C2F1200701FA02F320FA63
:100A940007F7954047EA030894404FEA154E230CA4
:100AA400B8FBFEF71FFA85FC0EFB178843EA0843E0
:100AB40007FB0CF1994209D9EB1807F1FF3080F0DC
:100AC4001B81994240F21881023F2B445B1AA4B265
:100AD400B3FBFEF00EFB103344EA034400FB0CFCB2
:100AE400A44509D92C1900F1FF3380F00781A445EE
:100AF40040F2048102382C4440EA0740A4EB0C0481
:100B040000271EB1D4400023C6E900433946BDE89E
:100B1400F0878B4209D9002E00F0EB800027C6E94C
:100B2400000138463946BDE8F087B3FA83F7002F51
:100B340047D18B4202D3824200F2FA80841A61EBDD
:100B4400030301209846002EE0D0C6E90048DDE703
:100B540002B9FFDEB2FA82F2002A40F08F80491B0C
:100B64004FEA154E1FFA85F80127B1FBFEFC230C52
:100B74000EFB1C1143EA014308FB0CF1994207D90F
:100B8400EB180CF1FF3002D2994200F2CD8084467A
:100B9400591AA3B2B1FBFEF00EFB101443EA04444D
:100BA40008FB00F8A04507D92C1900F1FF3302D245
:100BB400A04500F2B6801846A4EB080440EA0C40B5
:100BC4009FE7C7F1200CBB4022FA0CFE4EEA030E4D
:100BD40001FA07F420FA0CF521FA0CF34FEA1E4847
:100BE4002543B3FBF8F92C0C08FB19331FFA8EFAD2
:100BF40044EA034309FB0AF49C4202FA07F200FAAE
:100C040007F10BD91EEB030309F1FF3080F0878055
:100C14009C4240F28480A9F1020973441B1BADB2CB
:100C2400B3FBF8F008FB103345EA034400FB0AFA6F
:100C3400A24508D91EEB040400F1FF336BD2A24590
:100C440069D90238744440EA0940A0FB0289A4EB44
:100C54000A044C45C2464B4654D351D0002E69D0A9
:100C6400B1EB0A0564EB030404FA0CFCFD40FC4000
:100C74004CEA0505C6E90054002747E7C2F1200302
:100C840020FA03F7954001FA02F021FA03F34FEA40
:100C9400154E3843010CB3FBFEF71FFA85F80EFB23
:100CA400173341EA034107FB08F38B4204FA02F4C9
:100CB40007D9691807F1FF3C2FD28B422DD9023F87
:100CC4002944CB1A81B2B3FBFEF00EFB103341EA88
:100CD400034100FB08F38B4207D9691800F1FF3C7C
:100CE40017D28B4215D902382944C91A40EA07475A
:100CF4003BE73746304609E70746E7E61846FBE692
:100D04004145ABD2B8EB020A69EB0E020138134637
:100D1400A4E76046E9E7184695E76746D1E78146C8
:100D24007CE702382C4447E7ACF1020C2B442FE754
:100D3400384608E73746E9E6704700BF2DE9F04139
:100D44008AB00024059406940794089409940194A5
:100D5400274B1A6B42F004021A631A6B02F0040266
:100D64000192019A02941A6B42F080021A631A6B80
:100D740002F080020292029A03941A6B42F001027A
:100D84001A631A6B02F001020392039A04941A6B19
:100D940042F002021A631B6B03F002030493049BE8
:100DA400DFF8548022462021404600F007FD4FF42E
:100DB400005705974FF40413069307940D4D05A9A6
:100DC400284600F017FC2023059301260696079475
:100DD400089405A9404600F00DFC05970694079673
:100DE400089405A9284600F005FC0AB0BDE8F08186
:100DF400003802400008024000000240F0B587B00D
:100E040006AD882305F8013D214E4FF47A77029709
:100E140001240194009523466B22D021304600F032
:100E2400F9FF642000F076FB08238DF81730029751
:100E34000194009523466B22D021304600F0EAFF4E
:100E4400642000F067FB19228DF8172002970194A3
:100E540000952346D021304600F0DCFF00238DF8B6
:100E6400173002970194009523461C22D021304666
:100E740000F0D0FF06238DF81730029701940095F7
:100E840023461A22D021304600F0C4FF07B0F0BD3B
:100E9400A8EA0020024A136801331360704700BFB8
:100EA400280000202DE9F0418AB00023099308931B
:100EB4000793069305930493002400E0013441F260
:100EC40087339C4200F3A9804FF47A73029306237C
:100ED4000193B64D009501233B22D021B44801F083
:100EE4004DF82B78687840EA032000B2B14B1880A3
:100EF400AB78EE7846EA032636B2AF4B1E802B79E8
:100F04006D7945EA03252DB2AC4B1D80FFF7CAFA73
:100F14000022AB4BFFF730FBFFF740FD4FEA84089C
:100F2400A84F474438603046FFF7BCFA0022A44B70
:100F3400FFF722FBFFF732FDA34B4344186028461A
:100F4400FFF7B0FA00229E4BFFF716FBFFF726FDD2
:100F54009E4B4344186097ED007ADDED097AB4EEB8
:100F6400E77AF1EE10FA01DD3B680993954B03EB48
:100F7400840393ED007ADDED087AB4EEE77AF1EEBE
:100F840010FA04D58F4B03EB84031B6808938E4B34
:100F940003EB840393ED007ADDED077AB4EEE77A90
:100FA400F1EE10FA04DD884B03EB84031B6807930E
:100FB400854B03EB840393ED007ADDED067AB4EE02
:100FC400E77AF1EE10FA04D57F4B03EB84031B6838
:100FD40006937E4B03EB840393ED007ADDED057AF3
:100FE400B4EEE77AF1EE10FA04DD784B03EB8403F8
:100FF4001B680593754B03EB840393ED007ADDEDD9
:10100400047AB4EEE77AF1EE10FA7FF557AF6F4B3E
:1010140003EB84031B68049350E7DDED097A9DED2F
:10102400087A77EE877AB6EE007A67EE877A684BAD
:10103400C3ED007ADDED077ADDED066A77EEA67A78
:1010440067EE877A634BC3ED007ADDED057ADDED5B
:10105400046A77EEA67A67EE877A5F4BC3ED007A6F
:101064000EE05E4B93ED017A5B4BD3ED007AB4EE68
:10107400E77AF1EE10FA6ADC594A137801331370F7
:10108400574B1B78312B00F28E804FF47A73029306
:1010940006230193454C009401233B22D02144486C
:1010A40000F06CFF2378607840EA032000B24D4BD7
:1010B4001880A378E57845EA03252DB24A4B1D80B4
:1010C4002379647944EA032424B2484B1C80FFF753
:1010D400E9F900223A4BFFF74FFAFFF75FFC444E61
:1010E40030602846FFF7DEF90022354BFFF744FA5B
:1010F400FFF754FC3F4D28602046FFF7D3F9002248
:101104002F4BFFF739FAFFF749FC344B586096ED43
:10111400007AD5ED007AB4EEE77AF1EE10FA19DD33
:1011240096ED007A2D4BD3ED017AB4EEE77AF1EE29
:1011340010FA96DD96ED007A254BD3ED007AB4EEE5
:10114400E77AF1EE10FA97DDFFF7A4FE94E7FFF7D4
:10115400A1FE91E7274B93ED007A204BD3ED017A62
:10116400B4EEE77AF1EE10FA0EDD224B93ED007A3D
:10117400184BD3ED007AB4EEE77AF1EE10FA7FF76C
:101184007BAFFFF787FE77E7144B93ED017A124BA1
:10119400D3ED007AB4EEE77AF1EE10FA7FF76CAF94
:1011A400FFF778FE68E70AB0BDE8F08100EB0020A5
:1011B400A8EA002096EA002006EB002010EB0020AD
:1011C4000000103F749C0020544E00203400002086
:1011D4000CEB002014EB00209CEA002028000020E7
:1011E40012EB002098EA0020A0EA002094EA0020F4
:1011F400A4EA002018EB002072B6FEE708B50A48FE
:101204000A4B03600A4B436000238360C3604FF4BE
:101214008042026143618361C361036200F020FD87
:1012240000B908BDFFF7E8FFA8EA00200054004019
:10123400A086010008B50A480A4B03604FF4E13365
:10124400436000238360C36003610C2242618361B5
:10125400C36101F04BFC00B908BDFFF7CDFF00BF2F
:101264001CEB00200044004000B595B0342200215E
:1012740007A801F0B9FC0023029303930493059398
:10128400069300931A4A116C41F080511164126C58
:1012940002F080520092009A019316490A6822F4DF
:1012A400404242F480420A600A6802F440420192D9
:1012B400019A0222079201220A9210220B920D93A4
:1012C40007A801F05BF978B90F2302930021039179
:1012D40004914FF480530593069102A800F0B6FFE1
:1012E40020B915B05DF804FBFFF786FFFFF784FF14
:1012F400003802400070004008B500F0DFF8FFF746
:10130400B3FFFFF71BFDFFF779FFFFF793FFFFF72D
:1013140075FDFFF7C7FD024B00221A70F9E700BF05
:1013240012EB002000B583B0002100910C4B5A6CE5
:1013340042F480425A645A6C02F480420092009A49
:1013440001911A6C42F080521A641B6C03F08053B2
:101354000193019B072000F0F1F803B05DF804FB52
:101364000038024030B589B00023039304930593F9
:10137400069307930268154B9A4201D009B030BD19
:1013840000250195124C236B43F002032363236B66
:1013940003F002030193019BC023039312230493DC
:1013A40001230593032306930423079303A9094800
:1013B40000F020F90295236C43F400132364236C9A
:1013C40003F400130293029BD8E700BF00540040CB
:1013D400003802400004024000B589B000230393A2
:1013E40004930593069307930268154B9A4202D01F
:1013F40009B05DF804FB0021019103F5FA331A6C7E
:1014040042F400321A641A6C02F400320192019A16
:1014140002911A6B42F001021A631B6B03F0010381
:101424000293029B0C230393022304930323069346
:101434000723079303A9034800F0DCF8D8E700BFAB
:101444000044004000000240FEE7FEE7FEE7FEE73E
:10145400FEE770477047704708B500F049F808BDCB
:10146400034AD2F8883043F47003C2F888307047D6
:1014740000ED00E010B504460E4B18784FF47A7373
:10148400B3FBF0F30C4A1068B0FBF3F000F09CF8E7
:1014940068B90F2C01D901200AE0002221464FF03F
:1014A400FF3000F05DF8034B5C60002000E0012099
:1014B40010BD00BF040000200000002008B50B4B45
:1014C4001A6842F400721A601A6842F480621A6060
:1014D4001A6842F480721A60032000F02FF800208A
:1014E400FFF7C8FFFFF71EFF002008BD003C0240C5
:1014F400034A1168034B1B780B441360704700BF09
:1015040060EB002004000020014B1868704700BF06
:1015140060EB002038B50446FFF7F6FF0546B4F14A
:10152400FF3F02D0044B1B781C44FFF7EDFF401B28
:10153400A042FAD338BD00BF04000020074AD36894
:1015440023F4E0631B041B0C000200F4E060184366
:1015540040F0BF6040F40030D060704700ED00E020
:1015640030B4174BDB68C3F30223C3F10704042C24
:1015740028BF04241D1D062D18D9033B4FF0FF3549
:1015840005FA04F421EA0401994005FA03F322EA76
:101594000303194300280BDB0901C9B200F16040C1
:1015A40000F5614080F8001330BC70470023E5E784
:1015B40000F00F000901C9B2024B1954F4E700BF4F
:1015C40000ED00E014ED00E00138B0F1807F0AD2B4
:1015D400064B5860064AF02182F8231000209860D8
:1015E40007221A6070470120704700BF10E000E036
:1015F40000ED00E000230F2B00F2D680F0B482B09F
:101604005DE086685F000324BC4026EA0406CC68DB
:10161400BC4034438460466826EA02064C68C4F33E
:1016240000129A403243426056E0DC08083450F815
:10163400247003F0070296000F22B24027EA020743
:101644000A69B2403A4340F8242059E0062200E0F7
:101654000022B2403A430234544E46F82420544AFD
:101664001468EA4302EA04064F6817F4803F01D085
:1016740045EA04064E4C2660646802EA04064F6894
:1016840017F4003F01D045EA0406494C6660A4689B
:1016940002EA04064F6817F4801F01D045EA0406E5
:1016A400434CA660E46822404E6816F4001F01D043
:1016B40045EA04023E4CE26001330F2B71D801224B
:1016C4009A400C6804EA0205AA42F5D14C6804F079
:1016D4000304013C012C94D94A6802F00302032A52
:1016E40009D0C4685E000322B24024EA02048A6876
:1016F400B2402243C2604A6802F00302022A94D034
:1017040004685E000322B24024EA02044A6802F03C
:101714000302B240224302604A6812F4403FCBD035
:1017240000220192234A546C44F480445464526C61
:1017340002F480420192019A9C08A61C1B4A52F8AA
:10174400267003F0030296000F22B24027EA020734
:10175400194A90423FF47CAF02F58062904216D061
:1017640002F58062904214D002F58062904212D059
:1017740002F58062904210D002F5806290420ED051
:1017840002F5806290423FF461AF072261E70122D3
:101794005FE702225DE703225BE7042259E70522A3
:1017A40057E702B0F0BC7047704700BF00380140F3
:1017B400003C0140003802400000024012B9090414
:1017C400816170478161704703685A6912F4806FC0
:1017D40011D06FF480625A6100230363202280F8E1
:1017E4003D2080F83E30026C42F00402026480F82E
:1017F4003C300120704700207047F8B506460C467F
:1018040017461D4622E0FFF77FFE069BC01AA8423A
:1018140000D8DDB900233363202286F83D2086F802
:101824003E30326C42F02002326486F83C300120B3
:101834001AE033685B6924EA03039BB2B3FA83F3C7
:101844005B099F420FD1B5F1FF3FDCD1C4F30743DD
:10185400012BEED033689B6924EA03039BB2B3FAED
:1018640083F35B09EDE70020F8BDF8B504460D46A7
:1018740016461F463CE01A6842F400721A60236858
:101884006FF480625A6100232363202284F83D2090
:1018940084F83E30226C42F00402226484F83C3026
:1018A400012033E0FFF730FEC01BB04200D8FEB980
:1018B40000232363202284F83D2084F83E30226CE8
:1018C40042F02002226484F83C3001201EE02368A8
:1018D4005B6925EA03039BB2003318BF0123A3B15C
:1018E40023685A6912F4806FC5D1B6F1FF3FD9D18C
:1018F400C5F30743012BEAD023689B6925EA030358
:101904009BB2003318BF0123E9E70020F8BD70B58E
:1019140004460D46164623685B6913F0800F1CD1FC
:101924002046FFF751FFD0B9B5F1FF3FF3D0FFF7E1
:10193400EBFD801BA84201D8002DECD100232363CA
:10194400202284F83D2084F83E30226C42F02002AC
:10195400226484F83C30012000E0002070BD0120A6
:10196400FCE700002DE9F04184B0044688461646A1
:101974001F460B9D0268136843F48073136000953F
:101984000A9B00224FF00111FFF737FF60B1236873
:101994001B6813F4807F4FD04FF400732364032338
:1019A400184604B0BDE8F081226808F0FE03136114
:1019B4002B460A9A21492046FFF757FF08B1012315
:1019C400EEE70023039323685A6903929B69039308
:1019D400039B2A460A992046FFF799FF034658B10C
:1019E400236C042B01D00123DAE72268136843F443
:1019F400007313600123D3E7012F0ED02368320A4A
:101A04001A612A460A992046FFF781FF034678B1F6
:101A1400236C042B05D00123C2E72268F6B21661B9
:101A2400BEE72268136843F4007313600123B7E729
:101A34002268F6B21661B3E70323B1E7020001009E
:101A44002DE9F04184B004460E46174698460B9D96
:101A54000268136843F4806313600268136843F4F4
:101A64008073136000950A9B00224FF00111FFF769
:101A7400C4FE68B123681B6813F4807F00F089807A
:101A84004FF4007323640323184604B0BDE8F081C7
:101A9400F6B2236806F0FE021A612B460A9A3F4901
:101AA4002046FFF7E2FE08B10123EDE7002303938C
:101AB40023685A6903929B690393039B2A460A99F4
:101AC4002046FFF724FF58B1236C042B01D00123D7
:101AD400DAE72268136843F4007313600123D3E741
:101AE400B8F1010F0DD12368FFB21F612A460A998C
:101AF4002046FFF70CFF20B3236C042B1AD00123DC
:101B0400C2E723683A0A1A612A460A992046FFF76F
:101B1400FEFE58B1236C042B01D00123B4E72268E4
:101B2400136843F4007313600123ADE72368FFB225
:101B34001F61DBE72268136843F400731360012319
:101B4400A2E72268136843F48073136000950A9B2C
:101B540000224FF001112046FFF74FFE48B12368E1
:101B64001B6813F4807F16D04FF40073236403239F
:101B74008AE7236846F001061E612B460A9A074944
:101B84002046FFF772FE034600283FF47DAF012391
:101B94007AE7032378E7032376E700BF0200010016
:101BA40070B504460D46164623685B6913F0040FAE
:101BB4001CD12046FFF708FED0B9B5F1FF3FF3D0A2
:101BC400FFF7A2FC801BA84201D8002DECD1002312
:101BD4002363202284F83D2084F83E30226C42F0B6
:101BE4002002226484F83C30012000E0002070BD13
:101BF4000120FCE770B505460C4616462B685A6969
:101C040012F0400F29D15A6912F0100F15D1FFF7C5
:101C14007BFC801BA04201D8002CEFD100232B6356
:101C2400202285F83D2085F83E302A6C42F02002BF
:101C34002A6485F83C30012070BD6FF010025A61AF
:101C440000232B63202285F83D2085F83E302A6C42
:101C54002A6485F83C300120EEE70020ECE7000020
:101C6400002800F0C880F8B5044690F83D30002BF9
:101C740075D0242384F83D302268136823F00103CF
:101C840013602268136843F40043136022681368E6
:101C940023F40043136000F08FFB6268584B9A42B0
:101CA40062D8584B98428CBF00230123002B40F08C
:101CB400A480554BA3FB00239B0C21684A6822F0A7
:101CC4003F021A434A6025682A6A22F03F02666886
:101CD4004B498E424ED8013313432B622568E96980
:101CE40021F44F4121F0FF016368454A93424BD8E8
:101CF40001385B00B0FBF3F30133C3F30B03042B94
:101D040038BF04230B43EB6121680B6823F0C00345
:101D1400E269206A024313430B6021688B6823F451
:101D2400034323F0FF032269E068024313438B60FB
:101D34002168CB6823F0FF036269A069024313435F
:101D4400CB602268136843F0010313600020206411
:101D5400202384F83D30206384F83E00F8BD80F8E9
:101D64003C30FFF7FFFA84E7284B98428CBF0023EE
:101D740001239BE74FF4967101FB03F32449A1FB74
:101D840003139B090133A7E7A268BAB9461E03EB04
:101D94004307B6FBF7F60136C6F30B06B6FA86F62A
:101DA400760936BBC2B9013803EB4303B0FBF3F346
:101DB4000133C3F30B0242F40043A3E7461E03EBD3
:101DC400830707EB8707B6FBF7F60136C6F30B0666
:101DD400B6FA86F67609E4E7013803EB830303EBEE
:101DE4008303B0FBF3F20132C2F30B0242F440432B
:101DF40088E7012386E7012070470120AEE700BF92
:101E0400A08601007F841E0083DE1B43FF083D0083
:101E1400D34D62102DE9F04182B004460E461746B8
:101E24009846FFF771FB94F83D30DBB2202B04D0C9
:101E34000223184602B0BDE8F0810546009019233C
:101E440001224C492046FFF7D8FC002840F08B8043
:101E540094F83C30012B00F08880012384F83C3056
:101E640023681A6812F0010F03D11A6842F00102C4
:101E74001A602268136823F400631360212384F832
:101E84003D30402384F83E3000232364089B636282
:101E9400BDF824306385638D2385374BE362019558
:101EA4000A9B009343463A4631462046FFF75AFDC3
:101EB40000285CD1238D002B34D02A460A99204671
:101EC400FFF725FD10BB626A236812781A61616A04
:101ED4004B1C6362238D013B9BB22385628D013AC7
:101EE40092B262852268506910F0040FE2D0002B90
:101EF400E0D04B781361636A01336362238D013B45
:101F04002385638D013B9BB26385D3E7236C042B4C
:101F140001D001238DE72268136843F40073136032
:101F2400012386E72A460A992046FFF739FE03462D
:101F340058B1236C042B01D001237AE7226813687B
:101F440043F400731360012373E721680A6842F4C1
:101F540000720A60202284F83D20002284F83E208A
:101F640084F83C2065E7022363E7022361E7012349
:101F74005FE700BF020010000000FFFF2DE9F04101
:101F840086B004460E4617469846FFF7BDFA94F805
:101F94003D30DBB2202B04D00226304606B0BDE82B
:101FA400F08105460090192301229E492046FFF73F
:101FB40024FC002840F0348194F83C30012B00F0DC
:101FC4003781012384F83C3023681A6812F0010F2A
:101FD40003D11A6842F001021A602268136823F4DC
:101FE40000631360222384F83D30402384F83E309C
:101FF400002323640C9B6362BDF834306385638DD6
:102004002385894BE36201950E9B009343463A4630
:1020140031462046FFF714FD0646002840F00A81A9
:10202400238D5BB9029323685A6902929A690292DA
:10203400029A1A6842F400721A6072E0012B0AD004
:10204400022B1AD00023059323685A6905929B69D1
:102054000593059B65E02268136823F4806313608D
:102064000023039323685A6903929A690392039A9B
:102074001A6842F400721A6053E02268136823F469
:10208400806313602268136843F4006313600023C1
:10209400049323685A6904929B690493049B40E067
:1020A4002A460E992046FFF7A5FD002840F0C4807B
:1020B40023681A69636A1A70636A01336362238D41
:1020C400013B2385638D013B9BB2638529E0009529
:1020D4000E9B002255492046FFF78FFB002840F055
:1020E400AD802268136843F40073136023681A698F
:1020F400636A1A70626A531C6362238D013B2385F1
:10210400638D013B9BB2638523681B695370636ACB
:1021140001336362238D013B2385638D013B9BB2B5
:102124006385238D002B72D0032B49D8012BB7D0A4
:10213400022BCCD000950E9B00223C492046FFF791
:102144005CFB00287CD12268136823F4806313604D
:1021540023681A69636A1A70636A01336362238DA0
:10216400013B2385638D013B9BB2638500950E9BE8
:1021740000222E492046FFF740FB002862D1226846
:10218400136843F40073136023681A69636A1A704E
:10219400626A531C6362238D013B2385638D013B7B
:1021A4009BB2638523681B695370636A013363625E
:1021B400238D013B2385638D013B9BB26385B0E78F
:1021C4002A460E992046FFF715FD00283CD12368C6
:1021D4001A69636A1A70626A531C6362238D013B35
:1021E4002385638D013B9BB263852368596911F094
:1021F400040F96D01B695370636A01336362238DA5
:10220400013B2385638D013B9BB2638589E72023D2
:1022140084F83D30002384F83E3084F83C30BCE63A
:102224000226BAE6020010000000FFFF04000100CD
:102234000226B2E60126B0E60126AEE60126ACE6A9
:102244000126AAE60126A8E60126A6E6002800F053
:102254009E8070B50446504B1B6803F00F038B42FD
:1022640009D2CBB24C4A1370136803F00F038B42AC
:1022740001D0012070BD236813F0020F17D013F0B2
:10228400040F04D0454A936843F4E05393602368F1
:1022940013F0080F04D0414A936843F460439360F9
:1022A4003E4A936823F0F003A068034393600D460D
:1022B400236813F0010F32D06368012B21D09A1EDA
:1022C400012A25D9354A126812F0020F61D0334928
:1022D4008A6822F0030213438B60FFF715F9064660
:1022E4002E4B9B6803F00C036268B3EB820F16D08D
:1022F400FFF70AF9801B41F288339842F0D9032092
:10230400B8E7264A126812F4003FE0D10120B1E791
:10231400224A126812F0007FD9D10120AAE71E4B8D
:102324001B6803F00F03AB4209D9EAB21A4B1A70C7
:102334001B6803F00F03AB4201D001209AE7236826
:1023440013F0040F06D0154A936823F4E053E168B0
:102354000B439360236813F0080F07D00F4A936868
:1023640023F46043216943EAC103936000F044F815
:102374000A4B9B68C3F30313094AD35CD840094B47
:102384001860094B1868FFF775F8002072E7012000
:10239400704701206EE700BF003C02400038024055
:1023A400142C00080000002008000020014B1868CD
:1023B400704700BF0000002008B5FFF7F7FF044B8B
:1023C4009B68C3F38223034AD35CD84008BD00BF93
:1023D40000380240242C000808B5FFF7E7FF044B3F
:1023E4009B68C3F34233034AD35CD84008BD00BFA3
:1023F40000380240242C00082DE9F04B5C4B9B680C
:1024040003F00C03082B07D00C2B5BD0042B00F03B
:10241400AD805848BDE8F08B554B5A6802F03F0236
:102424005B6813F4800F2AD0514B5B68C3F38813A5
:102434001E4600275C010025E41A65EB0705A90187
:1024440041EA9461A001001B61EB0501CB0043EA62
:102454005073C400A01943EB07014B0243EAD05365
:102464004402204619460023FEF7E8FA404B5B6815
:10247400C3F3014301335B00B0FBF3F0CAE73C4B09
:102484005B68C3F388131E4600275C010025E41A29
:1024940065EB0705A90141EA9461A001001B61EB0A
:1024A4000501CB0043EA5073C400A01943EB0701B4
:1024B4008B0243EA90538402204619460023FEF718
:1024C400BDFAD3E72A4B5A6802F03F025B6813F463
:1024D400800F28D0264B5B68C3F388131E46002761
:1024E4005C010025E41A65EB0705A90141EA946142
:1024F400A001001B61EB0501CB0043EA5073C4004B
:10250400A01943EB07014B0243EAD053440220468F
:1025140019460023FEF792FA154B5B68C3F3027366
:10252400B0FBF3F076E7124B5B68C3F388131E46E7
:1025340000275C010025E41A65EB0705A90141EABF
:102544009461A001001B61EB0501CB0043EA5073C9
:10255400C400A01943EB07018B0243EA90538402A1
:10256400204619460023FEF769FAD5E7024851E7E9
:10257400003802400024F40000127A00002800F021
:102584000B8270B582B00446036813F0010F41D08A
:10259400A54B9B6803F00C03042B32D0A24B9B6821
:1025A40003F00C03082B27D09F4B9B6803F00C030C
:1025B4000C2B59D06368B3F5803F5BD0B3F5A02FE3
:1025C4005ED0994B1A6822F480321A601A6822F499
:1025D40080221A606368002B5CD0FEF795FF0546E5
:1025E400914B1B6813F4003F14D1FEF78DFF401B81
:1025F4006428F5D90320D4E18B4B5B6813F4800F76
:10260400D2D0894B1B6813F4003F03D06368002BBE
:1026140000F0C481236813F0020F67D0824B9B68DB
:1026240013F00C0F4AD0804B9B6803F00C03082B6B
:102634003FD07D4B9B6803F00C030C2B48D0E36820
:10264400002B74D0794B01221A60FEF75DFF05461A
:10265400754B1B6813F0020F60D1FEF755FF401B4A
:102664000228F5D903209CE16F4B5B6813F4800FBB
:10267400A0D0C6E76C4A136843F480331360A9E71B
:10268400694B1A6842F480221A601A6842F4803254
:102694001A609FE7FEF738FF0546634B1B6813F487
:1026A400003FB7D0FEF730FF401B6428F5D9032064
:1026B40077E15D4B5B6813F4800FBAD15A4B1B680A
:1026C40013F0020F0AD0E368012B07D0012068E160
:1026D400554B5B6813F4800FB1D1EFE7524A13688E
:1026E40023F0F803216943EAC1031360236813F05C
:1026F400080F40D0636963B34D4B01221A60FEF7A3
:1027040003FF0546484B5B6F13F0020F33D1FEF70E
:10271400FBFE401B0228F5D9032042E1424A13681C
:1027240023F0F803216943EAC1031360DEE73F4B5A
:1027340000221A60FEF7E8FE05463B4B1B6813F0C7
:10274400020FD3D0FEF7E0FE401B0228F5D9032088
:1027540027E1374B00221A60FEF7D6FE0546324BBE
:102764005B6F13F0020F06D0FEF7CEFE401B02286B
:10277400F5D9032015E1236813F0040F78D02A4B10
:102784001B6C13F0805F33D100230193264B1A6C2A
:1027940042F080521A641B6C03F080530193019B36
:1027A4000125244B1B6813F4807F23D0A368012BDD
:1027B40034D0052B40D01C4B1A6F22F001021A674B
:1027C4001A6F22F004021A67A368002B3ED0FEF7AA
:1027D4009BFE0646144B1B6F13F0020F47D1FEF706
:1027E40093FE801B41F288339842F3D90320D8E04A
:1027F4000025D6E70F4A136843F480731360FEF78D
:1028040083FE06460B4B1B6813F4807FCED1FEF784
:102814007BFE801B0228F5D90320C2E0024A136F15
:1028240043F001031367CFE700380240000047423A
:10283400800E4742007000405D4B1A6F42F0040264
:102844001A671A6F42F001021A67BDE7FEF75CFED1
:102854000646574B1B6F13F0020F08D0FEF754FEC9
:10286400801B41F288339842F3D9032099E0EDB9F3
:10287400A369002B00F094804D4A926802F00C0288
:10288400082A54D0022B17D04A4B00221A60FEF7B4
:102894003BFE0446464B1B6813F0007F45D0FEF711
:1028A40033FE001B0228F5D903207AE0404A136C5A
:1028B40023F080531364DBE73E4B00221A60FEF7DB
:1028C40023FE05463A4B1B6813F0007F06D0FEF743
:1028D4001BFE401B0228F5D9032062E0E369226A4B
:1028E4001343626A43EA8213A26A5208013A43EA32
:1028F4000243E26A43EA0263226B43EA02732C4A0C
:1029040053602C4B01221A60FEF7FEFD0446284B4F
:102914001B6813F0007F06D1FEF7F6FD001B0228AA
:10292400F5D903203DE000203BE0002039E0012BF5
:1029340039D01F4B5B6803F48001E269914201D0F6
:1029440001202EE003F03F02216A8A4201D00120D7
:1029540027E0616A47F6C0721A40B2EB811F01D0CA
:1029640001201EE003F44031A26A5208013AB1EB9F
:10297400024F01D0012014E003F07062E16AB2EB6F
:10298400016F01D001200CE003F0E043226BB3EBB4
:10299400027F0AD0012004E001207047012000E0FA
:1029A400002002B070BD0120FBE70020F9E700BF62
:1029B40000380240600047422DE9F04B04460268AB
:1029C400136923F44053C1680B431361836802699C
:1029D400134342691343C2691A430168CB6823F461
:1029E400164323F00C031343CB600268536923F4AA
:1029F400407381690B43536103683A4A934206D09A
:102A040002F58062934202D0FFF7D6FC01E0FFF7A3
:102A1400E3FCE369B3F5004F30D04FF0000906182A
:102A240049EB090716EB000B47EB090C4FEACC0303
:102A340043EA5B734FEACB0293469C4663689A0071
:102A44009B0F10EB0B0049EB0C01FDF7F7FF264D34
:102A5400A5FB00325109642202FB11021301323337
:102A6400A5FB03235B0903F0F00202EB011203F060
:102A74000F03216813448B60BDE8F08B83464FF04D
:102A8400000C06184CEB0C0716EB000847EB0C097E
:102A94004FEAC90343EA58734FEAC802904699467D
:102AA40062680021921841EB01031BEB08004CEB18
:102AB4000901FDF7C3FF0C4DA5FB00325109642247
:102AC40002FB1102D3003233A5FB03235B095A0036
:102AD40002F4F87202EB011203F0070321681344B5
:102AE4008B60C9E7001001401F85EB5158B310B546
:102AF400044690F83D300BB3242384F83D3022681B
:102B0400D36823F40053D3602046FFF755FF2268AF
:102B1400136923F4904313612268536923F02A0351
:102B240053612268D36843F40053D36000202064C7
:102B3400202384F83D3084F83E3010BD80F83C30CA
:102B4400FEF74AFCD8E7012070470000DFF834D0D4
:102B54000D480E490E4A002302E0D458C4500433F1
:102B6400C4188C42F9D30B4A0B4C002301E01360C8
:102B74000432A242FBD3FEF773FC00F011F8FEF717
:102B8400BBFB704700000220000000200C00002066
:102B94003C2C00080C00002064EB0020FEE7000041
:102BA40070B50D4E0D4CA41BA4100025A54209D1EF
:102BB4000B4E0C4C00F020F8A41BA4100025A542D9
:102BC40005D170BD56F8253098470135EEE756F823
:102BD400253098470135F2E7342C0008342C0008DE
:102BE400342C0008382C000802440346934200D1D8
:102BF400704703F8011BF9E7F8B500BFF8BC08BC3F
:102C04009E467047F8B500BFF8BC08BC9E467047A6
:102C14000000000000000000010203040607080988
:082C240000000000010203049E
:082C2C0044DEFF7F01000000FF
:042C3400E9010008AA
:042C3800C5010008CA
:0C2C3C000024F400010000001000000063
:0400000508002B5173
:00000001FF
